{
  "contractName": "StarNotary",
  "abi": [
    {
      "inputs": [],
      "stateMutability": "nonpayable",
      "type": "constructor"
    },
    {
      "anonymous": false,
      "inputs": [
        {
          "indexed": true,
          "internalType": "address",
          "name": "owner",
          "type": "address"
        },
        {
          "indexed": true,
          "internalType": "address",
          "name": "approved",
          "type": "address"
        },
        {
          "indexed": true,
          "internalType": "uint256",
          "name": "tokenId",
          "type": "uint256"
        }
      ],
      "name": "Approval",
      "type": "event"
    },
    {
      "anonymous": false,
      "inputs": [
        {
          "indexed": true,
          "internalType": "address",
          "name": "owner",
          "type": "address"
        },
        {
          "indexed": true,
          "internalType": "address",
          "name": "operator",
          "type": "address"
        },
        {
          "indexed": false,
          "internalType": "bool",
          "name": "approved",
          "type": "bool"
        }
      ],
      "name": "ApprovalForAll",
      "type": "event"
    },
    {
      "anonymous": false,
      "inputs": [
        {
          "indexed": true,
          "internalType": "address",
          "name": "from",
          "type": "address"
        },
        {
          "indexed": true,
          "internalType": "address",
          "name": "to",
          "type": "address"
        },
        {
          "indexed": true,
          "internalType": "uint256",
          "name": "tokenId",
          "type": "uint256"
        }
      ],
      "name": "Transfer",
      "type": "event"
    },
    {
      "inputs": [
        {
          "internalType": "address",
          "name": "to",
          "type": "address"
        },
        {
          "internalType": "uint256",
          "name": "tokenId",
          "type": "uint256"
        }
      ],
      "name": "approve",
      "outputs": [],
      "stateMutability": "nonpayable",
      "type": "function"
    },
    {
      "inputs": [
        {
          "internalType": "address",
          "name": "owner",
          "type": "address"
        }
      ],
      "name": "balanceOf",
      "outputs": [
        {
          "internalType": "uint256",
          "name": "",
          "type": "uint256"
        }
      ],
      "stateMutability": "view",
      "type": "function",
      "constant": true
    },
    {
      "inputs": [
        {
          "internalType": "uint256",
          "name": "tokenId",
          "type": "uint256"
        }
      ],
      "name": "getApproved",
      "outputs": [
        {
          "internalType": "address",
          "name": "",
          "type": "address"
        }
      ],
      "stateMutability": "view",
      "type": "function",
      "constant": true
    },
    {
      "inputs": [
        {
          "internalType": "address",
          "name": "owner",
          "type": "address"
        },
        {
          "internalType": "address",
          "name": "operator",
          "type": "address"
        }
      ],
      "name": "isApprovedForAll",
      "outputs": [
        {
          "internalType": "bool",
          "name": "",
          "type": "bool"
        }
      ],
      "stateMutability": "view",
      "type": "function",
      "constant": true
    },
    {
      "inputs": [],
      "name": "name",
      "outputs": [
        {
          "internalType": "string",
          "name": "",
          "type": "string"
        }
      ],
      "stateMutability": "view",
      "type": "function",
      "constant": true
    },
    {
      "inputs": [
        {
          "internalType": "uint256",
          "name": "tokenId",
          "type": "uint256"
        }
      ],
      "name": "ownerOf",
      "outputs": [
        {
          "internalType": "address",
          "name": "",
          "type": "address"
        }
      ],
      "stateMutability": "view",
      "type": "function",
      "constant": true
    },
    {
      "inputs": [
        {
          "internalType": "address",
          "name": "from",
          "type": "address"
        },
        {
          "internalType": "address",
          "name": "to",
          "type": "address"
        },
        {
          "internalType": "uint256",
          "name": "tokenId",
          "type": "uint256"
        }
      ],
      "name": "safeTransferFrom",
      "outputs": [],
      "stateMutability": "nonpayable",
      "type": "function"
    },
    {
      "inputs": [
        {
          "internalType": "address",
          "name": "from",
          "type": "address"
        },
        {
          "internalType": "address",
          "name": "to",
          "type": "address"
        },
        {
          "internalType": "uint256",
          "name": "tokenId",
          "type": "uint256"
        },
        {
          "internalType": "bytes",
          "name": "data",
          "type": "bytes"
        }
      ],
      "name": "safeTransferFrom",
      "outputs": [],
      "stateMutability": "nonpayable",
      "type": "function"
    },
    {
      "inputs": [
        {
          "internalType": "address",
          "name": "operator",
          "type": "address"
        },
        {
          "internalType": "bool",
          "name": "approved",
          "type": "bool"
        }
      ],
      "name": "setApprovalForAll",
      "outputs": [],
      "stateMutability": "nonpayable",
      "type": "function"
    },
    {
      "inputs": [
        {
          "internalType": "uint256",
          "name": "",
          "type": "uint256"
        }
      ],
      "name": "starsForSale",
      "outputs": [
        {
          "internalType": "uint256",
          "name": "",
          "type": "uint256"
        }
      ],
      "stateMutability": "view",
      "type": "function",
      "constant": true
    },
    {
      "inputs": [
        {
          "internalType": "bytes4",
          "name": "interfaceId",
          "type": "bytes4"
        }
      ],
      "name": "supportsInterface",
      "outputs": [
        {
          "internalType": "bool",
          "name": "",
          "type": "bool"
        }
      ],
      "stateMutability": "view",
      "type": "function",
      "constant": true
    },
    {
      "inputs": [],
      "name": "symbol",
      "outputs": [
        {
          "internalType": "string",
          "name": "",
          "type": "string"
        }
      ],
      "stateMutability": "view",
      "type": "function",
      "constant": true
    },
    {
      "inputs": [
        {
          "internalType": "uint256",
          "name": "",
          "type": "uint256"
        }
      ],
      "name": "tokenIdToStarInfo",
      "outputs": [
        {
          "internalType": "string",
          "name": "name",
          "type": "string"
        }
      ],
      "stateMutability": "view",
      "type": "function",
      "constant": true
    },
    {
      "inputs": [
        {
          "internalType": "uint256",
          "name": "tokenId",
          "type": "uint256"
        }
      ],
      "name": "tokenURI",
      "outputs": [
        {
          "internalType": "string",
          "name": "",
          "type": "string"
        }
      ],
      "stateMutability": "view",
      "type": "function",
      "constant": true
    },
    {
      "inputs": [
        {
          "internalType": "address",
          "name": "from",
          "type": "address"
        },
        {
          "internalType": "address",
          "name": "to",
          "type": "address"
        },
        {
          "internalType": "uint256",
          "name": "tokenId",
          "type": "uint256"
        }
      ],
      "name": "transferFrom",
      "outputs": [],
      "stateMutability": "nonpayable",
      "type": "function"
    },
    {
      "inputs": [
        {
          "internalType": "string",
          "name": "_name",
          "type": "string"
        },
        {
          "internalType": "uint256",
          "name": "_tokenId",
          "type": "uint256"
        }
      ],
      "name": "createStar",
      "outputs": [],
      "stateMutability": "nonpayable",
      "type": "function"
    },
    {
      "inputs": [
        {
          "internalType": "uint256",
          "name": "_tokenId",
          "type": "uint256"
        },
        {
          "internalType": "uint256",
          "name": "_price",
          "type": "uint256"
        }
      ],
      "name": "putStarUpForSale",
      "outputs": [],
      "stateMutability": "nonpayable",
      "type": "function"
    },
    {
      "inputs": [
        {
          "internalType": "uint256",
          "name": "_tokenId",
          "type": "uint256"
        }
      ],
      "name": "buyStar",
      "outputs": [],
      "stateMutability": "payable",
      "type": "function",
      "payable": true
    },
    {
      "inputs": [
        {
          "internalType": "uint256",
          "name": "_tokenId",
          "type": "uint256"
        }
      ],
      "name": "lookUptokenIdToStarInfo",
      "outputs": [
        {
          "internalType": "string",
          "name": "",
          "type": "string"
        }
      ],
      "stateMutability": "view",
      "type": "function",
      "constant": true
    },
    {
      "inputs": [
        {
          "internalType": "uint256",
          "name": "_tokenId1",
          "type": "uint256"
        },
        {
          "internalType": "uint256",
          "name": "_tokenId2",
          "type": "uint256"
        }
      ],
      "name": "exchangeStars",
      "outputs": [],
      "stateMutability": "nonpayable",
      "type": "function"
    },
    {
      "inputs": [
        {
          "internalType": "address",
          "name": "_to1",
          "type": "address"
        },
        {
          "internalType": "uint256",
          "name": "_tokenId",
          "type": "uint256"
        }
      ],
      "name": "transferStar",
      "outputs": [],
      "stateMutability": "nonpayable",
      "type": "function"
    }
  ],
  "bytecode": "0x60806040523480156200001157600080fd5b506040518060400160405280601081526020017f4d79205564616369747920546f6b656e000000000000000000000000000000008152506040518060400160405280600381526020017f4d55540000000000000000000000000000000000000000000000000000000000815250816000908051906020019062000096929190620000b8565b508060019080519060200190620000af929190620000b8565b505050620001cd565b828054620000c69062000197565b90600052602060002090601f016020900481019282620000ea576000855562000136565b82601f106200010557805160ff191683800117855562000136565b8280016001018555821562000136579182015b828111156200013557825182559160200191906001019062000118565b5b50905062000145919062000149565b5090565b5b80821115620001645760008160009055506001016200014a565b5090565b7f4e487b7100000000000000000000000000000000000000000000000000000000600052602260045260246000fd5b60006002820490506001821680620001b057607f821691505b60208210811415620001c757620001c662000168565b5b50919050565b6131ce80620001dd6000396000f3fe60806040526004361061012a5760003560e01c806342842e0e116100ab578063a22cb4651161006f578063a22cb46514610405578063b88d4fde1461042e578063c87b56dd14610457578063d7830ccb14610494578063e7152a5c146104d1578063e985e9c5146104fa5761012a565b806342842e0e1461030e5780636352211e1461033757806370a082311461037457806395d89b41146103b15780639697c0a1146103dc5761012a565b806315e0afa5116100f257806315e0afa51461023a5780631967fd981461026357806323b872dd146102a05780632f1c34ef146102c9578063316a4361146102e55761012a565b806301ffc9a71461012f5780630564b1301461016c57806306fdde03146101a9578063081812fc146101d4578063095ea7b314610211575b600080fd5b34801561013b57600080fd5b5061015660048036038101906101519190612006565b610537565b604051610163919061204e565b60405180910390f35b34801561017857600080fd5b50610193600480360381019061018e919061209f565b610619565b6040516101a091906120db565b60405180910390f35b3480156101b557600080fd5b506101be610631565b6040516101cb919061218f565b60405180910390f35b3480156101e057600080fd5b506101fb60048036038101906101f6919061209f565b6106c3565b60405161020891906121f2565b60405180910390f35b34801561021d57600080fd5b5061023860048036038101906102339190612239565b610709565b005b34801561024657600080fd5b50610261600480360381019061025c9190612279565b610821565b005b34801561026f57600080fd5b5061028a6004803603810190610285919061209f565b61090b565b604051610297919061218f565b60405180910390f35b3480156102ac57600080fd5b506102c760048036038101906102c291906122b9565b6109b1565b005b6102e360048036038101906102de919061209f565b610a11565b005b3480156102f157600080fd5b5061030c60048036038101906103079190612279565b610b14565b005b34801561031a57600080fd5b50610335600480360381019061033091906122b9565b610ba6565b005b34801561034357600080fd5b5061035e6004803603810190610359919061209f565b610bc6565b60405161036b91906121f2565b60405180910390f35b34801561038057600080fd5b5061039b6004803603810190610396919061230c565b610c4d565b6040516103a891906120db565b60405180910390f35b3480156103bd57600080fd5b506103c6610d05565b6040516103d3919061218f565b60405180910390f35b3480156103e857600080fd5b5061040360048036038101906103fe919061246e565b610d97565b005b34801561041157600080fd5b5061042c600480360381019061042791906124f6565b610ded565b005b34801561043a57600080fd5b50610455600480360381019061045091906125d7565b610e03565b005b34801561046357600080fd5b5061047e6004803603810190610479919061209f565b610e65565b60405161048b919061218f565b60405180910390f35b3480156104a057600080fd5b506104bb60048036038101906104b6919061209f565b610ecd565b6040516104c8919061218f565b60405180910390f35b3480156104dd57600080fd5b506104f860048036038101906104f39190612239565b610f75565b005b34801561050657600080fd5b50610521600480360381019061051c919061265a565b611002565b60405161052e919061204e565b60405180910390f35b60007f80ac58cd000000000000000000000000000000000000000000000000000000007bffffffffffffffffffffffffffffffffffffffffffffffffffffffff1916827bffffffffffffffffffffffffffffffffffffffffffffffffffffffff1916148061060257507f5b5e139f000000000000000000000000000000000000000000000000000000007bffffffffffffffffffffffffffffffffffffffffffffffffffffffff1916827bffffffffffffffffffffffffffffffffffffffffffffffffffffffff1916145b80610612575061061182611096565b5b9050919050565b60076020528060005260406000206000915090505481565b606060008054610640906126c9565b80601f016020809104026020016040519081016040528092919081815260200182805461066c906126c9565b80156106b95780601f1061068e576101008083540402835291602001916106b9565b820191906000526020600020905b81548152906001019060200180831161069c57829003601f168201915b5050505050905090565b60006106ce82611100565b6004600083815260200190815260200160002060009054906101000a900473ffffffffffffffffffffffffffffffffffffffff169050919050565b600061071482610bc6565b90508073ffffffffffffffffffffffffffffffffffffffff168373ffffffffffffffffffffffffffffffffffffffff161415610785576040517f08c379a000000000000000000000000000000000000000000000000000000000815260040161077c9061276d565b60405180910390fd5b8073ffffffffffffffffffffffffffffffffffffffff166107a461114b565b73ffffffffffffffffffffffffffffffffffffffff1614806107d357506107d2816107cd61114b565b611002565b5b610812576040517f08c379a0000000000000000000000000000000000000000000000000000000008152600401610809906127ff565b60405180910390fd5b61081c8383611153565b505050565b3373ffffffffffffffffffffffffffffffffffffffff1661084183610bc6565b73ffffffffffffffffffffffffffffffffffffffff16148061089657503373ffffffffffffffffffffffffffffffffffffffff1661087e82610bc6565b73ffffffffffffffffffffffffffffffffffffffff16145b6108d5576040517f08c379a00000000000000000000000000000000000000000000000000000000081526004016108cc9061286b565b60405180910390fd5b60006108e083610bc6565b905060006108ed83610bc6565b90506108fa82828661120c565b61090581838561120c565b50505050565b600660205280600052604060002060009150905080600001805461092e906126c9565b80601f016020809104026020016040519081016040528092919081815260200182805461095a906126c9565b80156109a75780601f1061097c576101008083540402835291602001916109a7565b820191906000526020600020905b81548152906001019060200180831161098a57829003601f168201915b5050505050905081565b6109c26109bc61114b565b82611506565b610a01576040517f08c379a00000000000000000000000000000000000000000000000000000000081526004016109f8906128fd565b60405180910390fd5b610a0c83838361120c565b505050565b6000600760008381526020019081526020016000205411610a67576040517f08c379a0000000000000000000000000000000000000000000000000000000008152600401610a5e90612969565b60405180910390fd5b6000600760008381526020019081526020016000205490506000610a8a83610bc6565b9050813411610ace576040517f08c379a0000000000000000000000000000000000000000000000000000000008152600401610ac5906129d5565b60405180910390fd5b610ad981338561120c565b6000610ae48261159b565b9050610af081846115a5565b82341115610b0e57610b0d338434610b089190612a24565b6115a5565b5b50505050565b3373ffffffffffffffffffffffffffffffffffffffff16610b3483610bc6565b73ffffffffffffffffffffffffffffffffffffffff1614610b8a576040517f08c379a0000000000000000000000000000000000000000000000000000000008152600401610b8190612aca565b60405180910390fd5b8060076000848152602001908152602001600020819055505050565b610bc183838360405180602001604052806000815250610e03565b505050565b600080610bd283611699565b9050600073ffffffffffffffffffffffffffffffffffffffff168173ffffffffffffffffffffffffffffffffffffffff161415610c44576040517f08c379a0000000000000000000000000000000000000000000000000000000008152600401610c3b90612b36565b60405180910390fd5b80915050919050565b60008073ffffffffffffffffffffffffffffffffffffffff168273ffffffffffffffffffffffffffffffffffffffff161415610cbe576040517f08c379a0000000000000000000000000000000000000000000000000000000008152600401610cb590612bc8565b60405180910390fd5b600360008373ffffffffffffffffffffffffffffffffffffffff1673ffffffffffffffffffffffffffffffffffffffff168152602001908152602001600020549050919050565b606060018054610d14906126c9565b80601f0160208091040260200160405190810160405280929190818152602001828054610d40906126c9565b8015610d8d5780601f10610d6257610100808354040283529160200191610d8d565b820191906000526020600020905b815481529060010190602001808311610d7057829003601f168201915b5050505050905090565b6000604051806020016040528084815250905080600660008481526020019081526020016000206000820151816000019080519060200190610dda929190611ef7565b50905050610de833836116d6565b505050565b610dff610df861114b565b83836118f4565b5050565b610e14610e0e61114b565b83611506565b610e53576040517f08c379a0000000000000000000000000000000000000000000000000000000008152600401610e4a906128fd565b60405180910390fd5b610e5f84848484611a61565b50505050565b6060610e7082611100565b6000610e7a611abd565b90506000815111610e9a5760405180602001604052806000815250610ec5565b80610ea484611ad4565b604051602001610eb5929190612c24565b6040516020818303038152906040525b915050919050565b6060600660008381526020019081526020016000206000018054610ef0906126c9565b80601f0160208091040260200160405190810160405280929190818152602001828054610f1c906126c9565b8015610f695780601f10610f3e57610100808354040283529160200191610f69565b820191906000526020600020905b815481529060010190602001808311610f4c57829003601f168201915b50505050509050919050565b3373ffffffffffffffffffffffffffffffffffffffff16610f9582610bc6565b73ffffffffffffffffffffffffffffffffffffffff1614610feb576040517f08c379a0000000000000000000000000000000000000000000000000000000008152600401610fe29061286b565b60405180910390fd5b610ffe610ff782610bc6565b838361120c565b5050565b6000600560008473ffffffffffffffffffffffffffffffffffffffff1673ffffffffffffffffffffffffffffffffffffffff16815260200190815260200160002060008373ffffffffffffffffffffffffffffffffffffffff1673ffffffffffffffffffffffffffffffffffffffff16815260200190815260200160002060009054906101000a900460ff16905092915050565b60007f01ffc9a7000000000000000000000000000000000000000000000000000000007bffffffffffffffffffffffffffffffffffffffffffffffffffffffff1916827bffffffffffffffffffffffffffffffffffffffffffffffffffffffff1916149050919050565b61110981611bac565b611148576040517f08c379a000000000000000000000000000000000000000000000000000000000815260040161113f90612b36565b60405180910390fd5b50565b600033905090565b816004600083815260200190815260200160002060006101000a81548173ffffffffffffffffffffffffffffffffffffffff021916908373ffffffffffffffffffffffffffffffffffffffff160217905550808273ffffffffffffffffffffffffffffffffffffffff166111c683610bc6565b73ffffffffffffffffffffffffffffffffffffffff167f8c5be1e5ebec7d5bd14f71427d1e84f3dd0314c0f7b2291e5b200ac8c7c3b92560405160405180910390a45050565b8273ffffffffffffffffffffffffffffffffffffffff1661122c82610bc6565b73ffffffffffffffffffffffffffffffffffffffff1614611282576040517f08c379a000000000000000000000000000000000000000000000000000000000815260040161127990612cba565b60405180910390fd5b600073ffffffffffffffffffffffffffffffffffffffff168273ffffffffffffffffffffffffffffffffffffffff1614156112f2576040517f08c379a00000000000000000000000000000000000000000000000000000000081526004016112e990612d4c565b60405180910390fd5b6112ff8383836001611bed565b8273ffffffffffffffffffffffffffffffffffffffff1661131f82610bc6565b73ffffffffffffffffffffffffffffffffffffffff1614611375576040517f08c379a000000000000000000000000000000000000000000000000000000000815260040161136c90612cba565b60405180910390fd5b6004600082815260200190815260200160002060006101000a81549073ffffffffffffffffffffffffffffffffffffffff02191690556001600360008573ffffffffffffffffffffffffffffffffffffffff1673ffffffffffffffffffffffffffffffffffffffff168152602001908152602001600020600082825403925050819055506001600360008473ffffffffffffffffffffffffffffffffffffffff1673ffffffffffffffffffffffffffffffffffffffff16815260200190815260200160002060008282540192505081905550816002600083815260200190815260200160002060006101000a81548173ffffffffffffffffffffffffffffffffffffffff021916908373ffffffffffffffffffffffffffffffffffffffff160217905550808273ffffffffffffffffffffffffffffffffffffffff168473ffffffffffffffffffffffffffffffffffffffff167fddf252ad1be2c89b69c2b068fc378daa952ba7f163c4a11628f55a4df523b3ef60405160405180910390a46115018383836001611bf3565b505050565b60008061151283610bc6565b90508073ffffffffffffffffffffffffffffffffffffffff168473ffffffffffffffffffffffffffffffffffffffff16148061155457506115538185611002565b5b8061159257508373ffffffffffffffffffffffffffffffffffffffff1661157a846106c3565b73ffffffffffffffffffffffffffffffffffffffff16145b91505092915050565b6000819050919050565b804710156115e8576040517f08c379a00000000000000000000000000000000000000000000000000000000081526004016115df90612db8565b60405180910390fd5b60008273ffffffffffffffffffffffffffffffffffffffff168260405161160e90612e09565b60006040518083038185875af1925050503d806000811461164b576040519150601f19603f3d011682016040523d82523d6000602084013e611650565b606091505b5050905080611694576040517f08c379a000000000000000000000000000000000000000000000000000000000815260040161168b90612e90565b60405180910390fd5b505050565b60006002600083815260200190815260200160002060009054906101000a900473ffffffffffffffffffffffffffffffffffffffff169050919050565b600073ffffffffffffffffffffffffffffffffffffffff168273ffffffffffffffffffffffffffffffffffffffff161415611746576040517f08c379a000000000000000000000000000000000000000000000000000000000815260040161173d90612efc565b60405180910390fd5b61174f81611bac565b1561178f576040517f08c379a000000000000000000000000000000000000000000000000000000000815260040161178690612f68565b60405180910390fd5b61179d600083836001611bed565b6117a681611bac565b156117e6576040517f08c379a00000000000000000000000000000000000000000000000000000000081526004016117dd90612f68565b60405180910390fd5b6001600360008473ffffffffffffffffffffffffffffffffffffffff1673ffffffffffffffffffffffffffffffffffffffff16815260200190815260200160002060008282540192505081905550816002600083815260200190815260200160002060006101000a81548173ffffffffffffffffffffffffffffffffffffffff021916908373ffffffffffffffffffffffffffffffffffffffff160217905550808273ffffffffffffffffffffffffffffffffffffffff16600073ffffffffffffffffffffffffffffffffffffffff167fddf252ad1be2c89b69c2b068fc378daa952ba7f163c4a11628f55a4df523b3ef60405160405180910390a46118f0600083836001611bf3565b5050565b8173ffffffffffffffffffffffffffffffffffffffff168373ffffffffffffffffffffffffffffffffffffffff161415611963576040517f08c379a000000000000000000000000000000000000000000000000000000000815260040161195a90612fd4565b60405180910390fd5b80600560008573ffffffffffffffffffffffffffffffffffffffff1673ffffffffffffffffffffffffffffffffffffffff16815260200190815260200160002060008473ffffffffffffffffffffffffffffffffffffffff1673ffffffffffffffffffffffffffffffffffffffff16815260200190815260200160002060006101000a81548160ff0219169083151502179055508173ffffffffffffffffffffffffffffffffffffffff168373ffffffffffffffffffffffffffffffffffffffff167f17307eab39ab6107e8899845ad3d59bd9653f200f220920489ca2b5937696c3183604051611a54919061204e565b60405180910390a3505050565b611a6c84848461120c565b611a7884848484611bf9565b611ab7576040517f08c379a0000000000000000000000000000000000000000000000000000000008152600401611aae90613066565b60405180910390fd5b50505050565b606060405180602001604052806000815250905090565b606060006001611ae384611d81565b01905060008167ffffffffffffffff811115611b0257611b01612343565b5b6040519080825280601f01601f191660200182016040528015611b345781602001600182028036833780820191505090505b509050600082602001820190505b600115611ba1578080600190039150507f3031323334353637383961626364656600000000000000000000000000000000600a86061a8153600a8581611b8b57611b8a613086565b5b0494506000851415611b9c57611ba1565b611b42565b819350505050919050565b60008073ffffffffffffffffffffffffffffffffffffffff16611bce83611699565b73ffffffffffffffffffffffffffffffffffffffff1614159050919050565b50505050565b50505050565b6000611c1a8473ffffffffffffffffffffffffffffffffffffffff16611ed4565b15611d74578373ffffffffffffffffffffffffffffffffffffffff1663150b7a02611c4361114b565b8786866040518563ffffffff1660e01b8152600401611c65949392919061310a565b6020604051808303816000875af1925050508015611ca157506040513d601f19601f82011682018060405250810190611c9e919061316b565b60015b611d24573d8060008114611cd1576040519150601f19603f3d011682016040523d82523d6000602084013e611cd6565b606091505b50600081511415611d1c576040517f08c379a0000000000000000000000000000000000000000000000000000000008152600401611d1390613066565b60405180910390fd5b805181602001fd5b63150b7a0260e01b7bffffffffffffffffffffffffffffffffffffffffffffffffffffffff1916817bffffffffffffffffffffffffffffffffffffffffffffffffffffffff191614915050611d79565b600190505b949350505050565b600080600090507a184f03e93ff9f4daa797ed6e38ed64bf6a1f0100000000000000008310611ddf577a184f03e93ff9f4daa797ed6e38ed64bf6a1f0100000000000000008381611dd557611dd4613086565b5b0492506040810190505b6d04ee2d6d415b85acef81000000008310611e1c576d04ee2d6d415b85acef81000000008381611e1257611e11613086565b5b0492506020810190505b662386f26fc100008310611e4b57662386f26fc100008381611e4157611e40613086565b5b0492506010810190505b6305f5e1008310611e74576305f5e1008381611e6a57611e69613086565b5b0492506008810190505b6127108310611e99576127108381611e8f57611e8e613086565b5b0492506004810190505b60648310611ebc5760648381611eb257611eb1613086565b5b0492506002810190505b600a8310611ecb576001810190505b80915050919050565b6000808273ffffffffffffffffffffffffffffffffffffffff163b119050919050565b828054611f03906126c9565b90600052602060002090601f016020900481019282611f255760008555611f6c565b82601f10611f3e57805160ff1916838001178555611f6c565b82800160010185558215611f6c579182015b82811115611f6b578251825591602001919060010190611f50565b5b509050611f799190611f7d565b5090565b5b80821115611f96576000816000905550600101611f7e565b5090565b6000604051905090565b600080fd5b600080fd5b60007fffffffff0000000000000000000000000000000000000000000000000000000082169050919050565b611fe381611fae565b8114611fee57600080fd5b50565b60008135905061200081611fda565b92915050565b60006020828403121561201c5761201b611fa4565b5b600061202a84828501611ff1565b91505092915050565b60008115159050919050565b61204881612033565b82525050565b6000602082019050612063600083018461203f565b92915050565b6000819050919050565b61207c81612069565b811461208757600080fd5b50565b60008135905061209981612073565b92915050565b6000602082840312156120b5576120b4611fa4565b5b60006120c38482850161208a565b91505092915050565b6120d581612069565b82525050565b60006020820190506120f060008301846120cc565b92915050565b600081519050919050565b600082825260208201905092915050565b60005b83811015612130578082015181840152602081019050612115565b8381111561213f576000848401525b50505050565b6000601f19601f8301169050919050565b6000612161826120f6565b61216b8185612101565b935061217b818560208601612112565b61218481612145565b840191505092915050565b600060208201905081810360008301526121a98184612156565b905092915050565b600073ffffffffffffffffffffffffffffffffffffffff82169050919050565b60006121dc826121b1565b9050919050565b6121ec816121d1565b82525050565b600060208201905061220760008301846121e3565b92915050565b612216816121d1565b811461222157600080fd5b50565b6000813590506122338161220d565b92915050565b600080604083850312156122505761224f611fa4565b5b600061225e85828601612224565b925050602061226f8582860161208a565b9150509250929050565b600080604083850312156122905761228f611fa4565b5b600061229e8582860161208a565b92505060206122af8582860161208a565b9150509250929050565b6000806000606084860312156122d2576122d1611fa4565b5b60006122e086828701612224565b93505060206122f186828701612224565b92505060406123028682870161208a565b9150509250925092565b60006020828403121561232257612321611fa4565b5b600061233084828501612224565b91505092915050565b600080fd5b600080fd5b7f4e487b7100000000000000000000000000000000000000000000000000000000600052604160045260246000fd5b61237b82612145565b810181811067ffffffffffffffff8211171561239a57612399612343565b5b80604052505050565b60006123ad611f9a565b90506123b98282612372565b919050565b600067ffffffffffffffff8211156123d9576123d8612343565b5b6123e282612145565b9050602081019050919050565b82818337600083830152505050565b600061241161240c846123be565b6123a3565b90508281526020810184848401111561242d5761242c61233e565b5b6124388482856123ef565b509392505050565b600082601f83011261245557612454612339565b5b81356124658482602086016123fe565b91505092915050565b6000806040838503121561248557612484611fa4565b5b600083013567ffffffffffffffff8111156124a3576124a2611fa9565b5b6124af85828601612440565b92505060206124c08582860161208a565b9150509250929050565b6124d381612033565b81146124de57600080fd5b50565b6000813590506124f0816124ca565b92915050565b6000806040838503121561250d5761250c611fa4565b5b600061251b85828601612224565b925050602061252c858286016124e1565b9150509250929050565b600067ffffffffffffffff82111561255157612550612343565b5b61255a82612145565b9050602081019050919050565b600061257a61257584612536565b6123a3565b9050828152602081018484840111156125965761259561233e565b5b6125a18482856123ef565b509392505050565b600082601f8301126125be576125bd612339565b5b81356125ce848260208601612567565b91505092915050565b600080600080608085870312156125f1576125f0611fa4565b5b60006125ff87828801612224565b945050602061261087828801612224565b93505060406126218782880161208a565b925050606085013567ffffffffffffffff81111561264257612641611fa9565b5b61264e878288016125a9565b91505092959194509250565b6000806040838503121561267157612670611fa4565b5b600061267f85828601612224565b925050602061269085828601612224565b9150509250929050565b7f4e487b7100000000000000000000000000000000000000000000000000000000600052602260045260246000fd5b600060028204905060018216806126e157607f821691505b602082108114156126f5576126f461269a565b5b50919050565b7f4552433732313a20617070726f76616c20746f2063757272656e74206f776e6560008201527f7200000000000000000000000000000000000000000000000000000000000000602082015250565b6000612757602183612101565b9150612762826126fb565b604082019050919050565b600060208201905081810360008301526127868161274a565b9050919050565b7f4552433732313a20617070726f76652063616c6c6572206973206e6f7420746f60008201527f6b656e206f776e6572206f7220617070726f76656420666f7220616c6c000000602082015250565b60006127e9603d83612101565b91506127f48261278d565b604082019050919050565b60006020820190508181036000830152612818816127dc565b9050919050565b7f5065726d697373696f6e2044656e696564212121000000000000000000000000600082015250565b6000612855601483612101565b91506128608261281f565b602082019050919050565b6000602082019050818103600083015261288481612848565b9050919050565b7f4552433732313a2063616c6c6572206973206e6f7420746f6b656e206f776e6560008201527f72206f7220617070726f76656400000000000000000000000000000000000000602082015250565b60006128e7602d83612101565b91506128f28261288b565b604082019050919050565b60006020820190508181036000830152612916816128da565b9050919050565b7f54686520537461722073686f756c6420626520757020666f722073616c650000600082015250565b6000612953601e83612101565b915061295e8261291d565b602082019050919050565b6000602082019050818103600083015261298281612946565b9050919050565b7f596f75206e65656420746f206861766520656e6f756768204574686572000000600082015250565b60006129bf601d83612101565b91506129ca82612989565b602082019050919050565b600060208201905081810360008301526129ee816129b2565b9050919050565b7f4e487b7100000000000000000000000000000000000000000000000000000000600052601160045260246000fd5b6000612a2f82612069565b9150612a3a83612069565b925082821015612a4d57612a4c6129f5565b5b828203905092915050565b7f596f752063616e27742073616c6520746865205374617220796f7520646f6e2760008201527f74206f776e656400000000000000000000000000000000000000000000000000602082015250565b6000612ab4602783612101565b9150612abf82612a58565b604082019050919050565b60006020820190508181036000830152612ae381612aa7565b9050919050565b7f4552433732313a20696e76616c696420746f6b656e2049440000000000000000600082015250565b6000612b20601883612101565b9150612b2b82612aea565b602082019050919050565b60006020820190508181036000830152612b4f81612b13565b9050919050565b7f4552433732313a2061646472657373207a65726f206973206e6f74206120766160008201527f6c6964206f776e65720000000000000000000000000000000000000000000000602082015250565b6000612bb2602983612101565b9150612bbd82612b56565b604082019050919050565b60006020820190508181036000830152612be181612ba5565b9050919050565b600081905092915050565b6000612bfe826120f6565b612c088185612be8565b9350612c18818560208601612112565b80840191505092915050565b6000612c308285612bf3565b9150612c3c8284612bf3565b91508190509392505050565b7f4552433732313a207472616e736665722066726f6d20696e636f72726563742060008201527f6f776e6572000000000000000000000000000000000000000000000000000000602082015250565b6000612ca4602583612101565b9150612caf82612c48565b604082019050919050565b60006020820190508181036000830152612cd381612c97565b9050919050565b7f4552433732313a207472616e7366657220746f20746865207a65726f2061646460008201527f7265737300000000000000000000000000000000000000000000000000000000602082015250565b6000612d36602483612101565b9150612d4182612cda565b604082019050919050565b60006020820190508181036000830152612d6581612d29565b9050919050565b7f416464726573733a20696e73756666696369656e742062616c616e6365000000600082015250565b6000612da2601d83612101565b9150612dad82612d6c565b602082019050919050565b60006020820190508181036000830152612dd181612d95565b9050919050565b600081905092915050565b50565b6000612df3600083612dd8565b9150612dfe82612de3565b600082019050919050565b6000612e1482612de6565b9150819050919050565b7f416464726573733a20756e61626c6520746f2073656e642076616c75652c207260008201527f6563697069656e74206d61792068617665207265766572746564000000000000602082015250565b6000612e7a603a83612101565b9150612e8582612e1e565b604082019050919050565b60006020820190508181036000830152612ea981612e6d565b9050919050565b7f4552433732313a206d696e7420746f20746865207a65726f2061646472657373600082015250565b6000612ee6602083612101565b9150612ef182612eb0565b602082019050919050565b60006020820190508181036000830152612f1581612ed9565b9050919050565b7f4552433732313a20746f6b656e20616c7265616479206d696e74656400000000600082015250565b6000612f52601c83612101565b9150612f5d82612f1c565b602082019050919050565b60006020820190508181036000830152612f8181612f45565b9050919050565b7f4552433732313a20617070726f766520746f2063616c6c657200000000000000600082015250565b6000612fbe601983612101565b9150612fc982612f88565b602082019050919050565b60006020820190508181036000830152612fed81612fb1565b9050919050565b7f4552433732313a207472616e7366657220746f206e6f6e20455243373231526560008201527f63656976657220696d706c656d656e7465720000000000000000000000000000602082015250565b6000613050603283612101565b915061305b82612ff4565b604082019050919050565b6000602082019050818103600083015261307f81613043565b9050919050565b7f4e487b7100000000000000000000000000000000000000000000000000000000600052601260045260246000fd5b600081519050919050565b600082825260208201905092915050565b60006130dc826130b5565b6130e681856130c0565b93506130f6818560208601612112565b6130ff81612145565b840191505092915050565b600060808201905061311f60008301876121e3565b61312c60208301866121e3565b61313960408301856120cc565b818103606083015261314b81846130d1565b905095945050505050565b60008151905061316581611fda565b92915050565b60006020828403121561318157613180611fa4565b5b600061318f84828501613156565b9150509291505056fea26469706673582212208c7331d314432ef504a5b913125f88b1b25fcf6bd2a21e0cc572a23bc26190e964736f6c634300080c0033",
  "immutableReferences": {},
  "source": "// SPDX-License-Identifier: MIT\npragma solidity >=0.4.24;\n\n//Importing openzeppelin-solidity ERC-721 implemented Standard\nimport \"../app/node_modules/@openzeppelin/contracts/token/ERC721/ERC721.sol\";\nimport \"../app/node_modules/@openzeppelin/contracts/utils/Address.sol\";\n\n// StarNotary Contract declaration inheritance the ERC721 openzeppelin implementation\ncontract StarNotary is ERC721 {\n\n    // Star data\n    struct Star {\n        string name;\n    }\n\n    // Implement Task 1 Add a name and symbol properties\n    // name: Is a short name to your token\n    // symbol: Is a short string like 'USD' -> 'American Dollar'\n    constructor() ERC721(\"My Udacity Token\", \"MUT\") {}\n    \n\n    // mapping the Star with the Owner Address\n    mapping(uint256 => Star) public tokenIdToStarInfo;\n    // mapping the TokenId and price\n    mapping(uint256 => uint256) public starsForSale;\n\n    \n    // Create Star using the Struct\n    function createStar(string memory _name, uint256 _tokenId) public { // Passing the name and tokenId as a parameters\n        Star memory newStar = Star(_name); // Star is an struct so we are creating a new Star\n        tokenIdToStarInfo[_tokenId] = newStar; // Creating in memory the Star -> tokenId mapping\n        _mint(msg.sender, _tokenId); // _mint assign the the star with _tokenId to the sender address (ownership)\n    }\n\n    // Putting an Star for sale (Adding the star tokenid into the mapping starsForSale, first verify that the sender is the owner)\n    function putStarUpForSale(uint256 _tokenId, uint256 _price) public {\n        require(ownerOf(_tokenId) == msg.sender, \"You can't sale the Star you don't owned\");\n        starsForSale[_tokenId] = _price;\n    }\n\n\n    // Function that allows you to convert an address into a payable address\n    function _make_payable(address x) internal pure returns (address payable) {\n        return payable(address(uint160(x)));\n    }\n\n    function buyStar(uint256 _tokenId) public  payable {\n        require(starsForSale[_tokenId] > 0, \"The Star should be up for sale\");\n        uint256 starCost = starsForSale[_tokenId];\n        address ownerAddress = ownerOf(_tokenId);\n        require(msg.value > starCost, \"You need to have enough Ether\");\n        _transfer(ownerAddress, msg.sender, _tokenId); // We can't use _addTokenTo or_removeTokenFrom functions, now we have to use _transferFrom\n        address payable ownerAddressPayable = _make_payable(ownerAddress); // We need to make this conversion to be able to use transfer() function to transfer ethers\n\n        // transfer() method is no longer recommended using: https://consensys.net/diligence/blog/2019/09/stop-using-soliditys-transfer-now/\n        // ownerAddressPayable.transfer(starCost); \n        Address.sendValue(ownerAddressPayable, starCost);\n        if(msg.value > starCost) {\n            Address.sendValue(payable(msg.sender), msg.value - starCost);\n            // payable(msg.sender).transfer(msg.value - starCost);\n        }\n    }\n\n    // Implement Task 1 lookUptokenIdToStarInfo\n    function lookUptokenIdToStarInfo (uint _tokenId) public view returns (string memory) {\n        //1. You should return the Star saved in tokenIdToStarInfo mapping\n        return tokenIdToStarInfo[_tokenId].name;\n    }\n\n    // Implement Task 1 Exchange Stars function\n    function exchangeStars(uint256 _tokenId1, uint256 _tokenId2) public {\n        //1. Passing to star tokenId you will need to check if the owner of _tokenId1 or _tokenId2 is the sender\n        //2. You don't have to check for the price of the token (star)\n        //3. Get the owner of the two tokens (ownerOf(_tokenId1), ownerOf(_tokenId2)\n        //4. Use _transferFrom function to exchange the tokens.\n        require(ownerOf(_tokenId1) == msg.sender || ownerOf(_tokenId2)  == msg.sender, \"Permission Denied!!!\");\n        address owner1 = ownerOf(_tokenId1);\n        address owner2 = ownerOf(_tokenId2);\n        _transfer(owner1, owner2, _tokenId1);\n        _transfer(owner2, owner1, _tokenId2);\n    }\n\n    // Implement Task 1 Transfer Stars\n    function transferStar(address _to1, uint256 _tokenId) public {\n        //1. Check if the sender is the ownerOf(_tokenId)\n        //2. Use the transferFrom(from, to, tokenId); function to transfer the Star\n        require(ownerOf(_tokenId) == msg.sender, \"Permission Denied!!!\");\n        _transfer(ownerOf(_tokenId), _to1, _tokenId);\n    }\n\n}",
  "sourcePath": "G:\\Legion_Files\\Anish\\Blockchain Nanodegree\\3_Ethereum Smart Contracts Tokens and Dapps\\project\\Udacity_StarNotary_Project\\contracts\\StartNotary.sol",
  "compiler": {
    "name": "solc",
    "version": "0.8.12+commit.f00d7308.Emscripten.clang"
  },
  "schemaVersion": "3.4.16",
  "updatedAt": "2023-11-11T08:20:30.155Z",
  "networkType": "ethereum",
  "devdoc": {
    "kind": "dev",
    "methods": {
      "approve(address,uint256)": {
        "details": "See {IERC721-approve}."
      },
      "balanceOf(address)": {
        "details": "See {IERC721-balanceOf}."
      },
      "getApproved(uint256)": {
        "details": "See {IERC721-getApproved}."
      },
      "isApprovedForAll(address,address)": {
        "details": "See {IERC721-isApprovedForAll}."
      },
      "name()": {
        "details": "See {IERC721Metadata-name}."
      },
      "ownerOf(uint256)": {
        "details": "See {IERC721-ownerOf}."
      },
      "safeTransferFrom(address,address,uint256)": {
        "details": "See {IERC721-safeTransferFrom}."
      },
      "safeTransferFrom(address,address,uint256,bytes)": {
        "details": "See {IERC721-safeTransferFrom}."
      },
      "setApprovalForAll(address,bool)": {
        "details": "See {IERC721-setApprovalForAll}."
      },
      "supportsInterface(bytes4)": {
        "details": "See {IERC165-supportsInterface}."
      },
      "symbol()": {
        "details": "See {IERC721Metadata-symbol}."
      },
      "tokenURI(uint256)": {
        "details": "See {IERC721Metadata-tokenURI}."
      },
      "transferFrom(address,address,uint256)": {
        "details": "See {IERC721-transferFrom}."
      }
    },
    "version": 1
  },
  "userdoc": {
    "kind": "user",
    "methods": {},
    "version": 1
  }
}